:040000000128EF2FB5
:1001FA001630210097000800FE0012001E00FE0BB8
:10020A000229003448302100990098012200960101
:10021A0008008131422181318131072181318031C8
:10022A00FD2081310800F1000630710203181E29F1
:10023A001F29232971082000B90027297108FA3ECD
:10024A002000B9000230F0007008B9073908080028
:10025A001E34213404340C3414343F340234203430
:10026A000E34013406340A34123422343E342E3425
:10027A0030340834103423341D34153022008C00F5
:10028A008D01E03021008C00FF308D00FE3023000C
:10029A008D008C0124008D018C012100951722000C
:1002AA009D019E01080081310E2181310D30F90036
:1002BA0009308131752181312000B700093081313F
:1002CA00182181312000B6002030F0003708F100F3
:1002DA0036088231512281312000B5007329012864
:1002EA00FC0006307C0203187B297C298D290A3000
:1002FA00F0000030F1007908FA00FB017A08F200F8
:10030A007B08F3008131F22181317008FD009D29BB
:10031A000A30F0000030F1007908FA00FB017A088F
:10032A00F2007B08F30081319F2181317008FD00C2
:10033A007D080800F601F31FA329A429AB29F209B5
:10034A00F309F20A0319F30AF601F60AF11FAE29B4
:10035A00AF29B429F009F109F00A0319F10A700862
:10036A0071040319B929BA29E329F501F50AC6293D
:10037A000130F035F10D890BBE290130F400740803
:10038A00F507F11FC929CA29BD2971087302031D7E
:10039A00D02970087202031CD329D429D8297008DD
:1003AA00F2027108F33B0130F136F00C890BD929BE
:1003BA000130F502031DE229E329CA297608031947
:1003CA00E729E829ED29F209F309F20A0319F30AE0
:1003DA007308F1007208F0000800F601F11FF6290F
:1003EA00F729FE29F009F109F00A0319F10AF601C1
:1003FA00F60AF31F012A022A0B2AF209F309F20A62
:10040A000319F30A0130F4007408F606F701F8013B
:10041A00700871040319122A132A422AF501F50AEF
:10042A001F2A0130F035F10D890B172A0130F4002B
:10043A007408F507F11F222A232A162A0130F735F4
:10044A00F80D890B242A71087302031D2E2A7008DD
:10045A007202031C312A322A372A7008F202710802
:10046A00F33B77140130F136F00C890B382A01304E
:10047A00F502031D412A422A232A76080319462A2D
:10048A00472A4C2AF709F809F70A0319F80A7808DB
:10049A00F1007708F0000800F4007108031D562ADD
:1004AA00572ADC2A7008860087010108F200740ABC
:1004BA005F2AF235890B5E2A720880392000B8005B
:1004CA000310B80C700A860087010108F200740A4A
:1004DA006F2AF235890B6E2A72088039F300730885
:1004EA00B8040310B80C700A860087010108F200EC
:1004FA00740A802AF235890B7F2A72088039F30040
:10050A007308B8040310B80C700A86008701010842
:10051A00F200740A912AF235890B902A72088039FE
:10052A00F3007308B8040310B80C700A8600870138
:10053A000108F200740AA22AF235890BA12A72086C
:10054A008039F3007308B8040310B80C700A8600E7
:10055A0087010108F200740AB32AF235890BB22A1C
:10056A0072088039F3007308B8040310B80C700AD3
:10057A00860087010108F200740AC42AF235890B41
:10058A00C32A72088039F3007308B8040310B80C40
:10059A007008860087010108F200740AD52AF2352C
:1005AA00890BD42A72088039F3007308B8047103DE
:1005BA00031DE02AE12A6E2B7008053E860087019A
:1005CA000108F200740AEA2AF235890BE92A72084C
:1005DA0080392000B8000310B80C7008023E86006B
:1005EA0087010108F200740AFB2AF235890BFA2AFC
:1005FA0072088039F3007308B8040310B80C700845
:10060A00023E860087010108F200740A0D2BF235BA
:10061A00890B0C2B72088039F3007308B804031095
:10062A00B80C7008023E860087010108F200740ABD
:10063A001F2BF235890B1E2B72088039F3007308C1
:10064A00B8040310B80C7008023E8600870101083E
:10065A00F200740A312BF235890B302B720880397B
:10066A00F3007308B8040310B80C7008043E86003F
:10067A0087010108F200740A432BF235890B422BD9
:10068A0072088039F3007308B8040310B80C7008B4
:10069A00033E860087010108F200740A552BF235E1
:1006AA00890B542B72088039F3007308B8040310BD
:1006BA00B80C7008023E860087010108F200740A2D
:1006CA00672BF235890B662B72088039F3007308A1
:1006DA00B80402307106031D732B742BFE2B7008AD
:1006EA00053E860087010108F200740A7D2BF23567
:1006FA00890B7C2B720880392000B8000310B80CD3
:10070A007008073E860087010108F200740A8E2BE2
:10071A00F235890B8D2B72088039F3007308B804FF
:10072A000310B80C7008123E860087010108F20017
:10073A00740AA02BF235890B9F2B72088039F300BB
:10074A007308B8040310B80C7008033E86008701CA
:10075A000108F200740AB22BF235890BB12B720828
:10076A008039F3007308B8040310B80C7008063E09
:10077A00860087010108F200740AC42BF235890B3E
:10078A00C32B72088039F3007308B8040310B80C3D
:10079A00700A860087010108F200740AD52BF23527
:1007AA00890BD42B72088039F3007308B80403103C
:1007BA00B80C700A860087010108F200740AE62B59
:1007CA00F235890BE52B72088039F3007308B804F7
:1007DA000310B80C7008860087010108F200740A39
:1007EA00F72BF235890BF62B72088039F300730860
:1007FA00B80403307106031D032C042C8E2C7008D8
:10080A00860087010108F200740A0C2CF235890B64
:10081A000B2C720880392000B8000310B80C700A3B
:10082A00860087010108F200740A1C2CF235890B34
:10083A001B2C72088039F3007308B8040310B80C33
:10084A00700A860087010108F200740A2D2CF2351D
:10085A00890B2C2C72088039F3007308B804031032
:10086A00B80C7008093E860087010108F200740A74
:10087A003F2CF235890B3E2C72088039F30073083D
:10088A00B8040310B80C7008083E860087010108F6
:10089A00F200740A512CF235890B502C72088039F7
:1008AA00F3007308B8040310B80C7008043E8600FD
:1008BA0087010108F200740A632CF235890B622C55
:1008CA0072088039F3007308B8040310B80C700872
:1008DA00063E860087010108F200740A752CF2357B
:1008EA00890B742C72088039F3007308B80403105A
:1008FA00B80C7008053E860087010108F200740AE8
:10090A00872CF235890B862C72088039F30073081C
:10091A00B80404307106031D932C942C212D700801
:10092A00063E860087010108F200740A9D2CF23502
:10093A00890B9C2C720880392000B8000310B80C6F
:10094A007008063E860087010108F200740AAE2C80
:10095A00F235890BAD2C72088039F3007308B8049C
:10096A000310B80C7008063E860087010108F200E1
:10097A00740AC02CF235890BBF2C72088039F30037
:10098A007308B8040310B80C7008053E8600870186
:10099A000108F200740AD22CF235890BD12C7208A4
:1009AA008039F3007308B8040310B80C70080D3EC0
:1009BA00860087010108F200740AE42CF235890BDB
:1009CA00E32C72088039F3007308B8040310B80CDA
:1009DA0070080C3E860087010108F200740AF62CA2
:1009EA00F235890BF52C72088039F3007308B804C4
:1009FA000310B80C70080B3E860087010108F2004C
:100A0A00740A082DF235890B072D72088039F30014
:100A1A007308B8040310B80C70080A3E86008701F0
:100A2A000108F200740A1A2DF235890B192D720881
:100A3A008039F3007308B80405307106031D262DAA
:100A4A00272DB22D7008860087010108F200740A6A
:100A5A002F2DF235890B2E2D720880392000B8000F
:100A6A000310B80C700A860087010108F200740AA4
:100A7A003F2DF235890B3E2D72088039F300730839
:100A8A00B8040310B80C7008093E860087010108F3
:100A9A00F200740A512DF235890B502D72088039F3
:100AAA00F3007308B8040310B80C7008093E8600F6
:100ABA0087010108F200740A632DF235890B622D51
:100ACA0072088039F3007308B8040310B80C700870
:100ADA000E3E860087010108F200740A752DF23570
:100AEA00890B742D72088039F3007308B804031057
:100AFA00B80C7008073E860087010108F200740AE4
:100B0A00872DF235890B862D72088039F300730818
:100B1A00B8040310B80C7008073E86008701010864
:100B2A00F200740A992DF235890B982D72088039D2
:100B3A00F3007308B8040310B80C7008053E860069
:100B4A0087010108F200740AAB2DF235890BAA2D30
:100B5A0072088039F3007308B80406307106031D61
:100B6A00B72DB82D402E7008860087010108F200C3
:100B7A00740AC02DF235890BBF2D72088039200006
:100B8A00B8000310B80C700A860087010108F20049
:100B9A00740AD02DF235890BCF2D72088039F300F3
:100BAA007308B8040310B80C700A8600870101089C
:100BBA00F200740AE12DF235890BE02D72088039B2
:100BCA00F3007308B8040310B80C7008103E8600CE
:100BDA0087010108F200740AF32DF235890BF22D10
:100BEA0072088039F3007308B8040310B80C70084F
:100BFA000F3E860087010108F200740A052EF235BD
:100C0A00890B042E72088039F3007308B8040310A4
:100C1A00B80C7008073E860087010108F200740AC2
:100C2A00172EF235890B162E72088039F3007308D5
:100C3A00B8040310B80C700A860087010108F20094
:100C4A00740A282EF235890B272E72088039F30090
:100C5A007308B8040310B80C7008860087010108ED
:100C6A00F200740A392EF235890B382E720880394F
:100C7A00F3007308B80407307106031D452E462E8B
:100C8A00D32E7008073E860087010108F200740A15
:100C9A004F2EF235890B4E2E720880392000B8008B
:100CAA000310B80C7008073E860087010108F2009D
:100CBA00740A602EF235890B5F2E72088039F300B0
:100CCA007308B8040310B80C7008123E8600870136
:100CDA000108F200740A722EF235890B712E72081D
:100CEA008039F3007308B8040310B80C7008113E79
:100CFA00860087010108F200740A842EF235890BF6
:100D0A00832E72088039F3007308B8040310B80CF4
:100D1A007008023E860087010108F200740A962EC6
:100D2A00F235890B952E72088039F3007308B804DE
:100D3A000310B80C7008063E860087010108F2000D
:100D4A00740AA82EF235890BA72E72088039F3008F
:100D5A007308B8040310B80C7008093E86008701AE
:100D6A000108F200740ABA2EF235890BB92E7208FC
:100D7A008039F3007308B8040310B80C7008053EF4
:100D8A00860087010108F200740ACC2EF235890B1D
:100D9A00CB2E72088039F3007308B8040830710644
:100DAA00031DD82ED92E5E2F7008860087010108F0
:100DBA00F200740AE12EF235890BE02E72088039AE
:100DCA002000B8000310B80C700A860087010108D9
:100DDA00F200740AF12EF235890BF02E720880396E
:100DEA00F3007308B8040310B80C700A8600870170
:100DFA000108F200740A022FF235890B012F7208DA
:100E0A008039F3007308B8040310B80C700A86001E
:100E1A0087010108F200740A132FF235890B122F89
:100E2A0072088039F3007308B8040310B80C70080C
:100E3A00860087010108F200740A242FF235890B13
:100E4A00232F72088039F3007308B8040310B80C12
:100E5A00700A860087010108F200740A352FF235FC
:100E6A00890B342F72088039F3007308B804031011
:100E7A00B80C700A860087010108F200740A462F2E
:100E8A00F235890B452F72088039F3007308B804CC
:100E9A000310B80C7008860087010108F200740A72
:100EAA00572FF235890B562F72088039F3007308D1
:100EBA00B80409307106031D632F642FEC2F7008E4
:100ECA00860087010108F200740A6C2FF235890B3B
:100EDA006B2F720880392000B8000310B80C700A12
:100EEA00860087010108F200740A7C2FF235890B0B
:100EFA007B2F72088039F3007308B8040310B80C0A
:100F0A007008093E860087010108F200740A8E2FD4
:100F1A00F235890B8D2F72088039F3007308B804F3
:100F2A000310B80C7008143E860087010108F2000D
:100F3A00740AA02FF235890B9F2F72088039F300AB
:100F4A007308B8040310B80C7008133E86008701B2
:100F5A000108F200740AB22FF235890BB12F720818
:100F6A008039F3007308B8040310B80C700A8600BD
:100F7A0087010108F200740AC32FF235890BC22FC8
:100F8A0072088039F3007308B8040310B80C700AA9
:100F9A00860087010108F200740AD42FF235890B02
:100FAA00D32F72088039F3007308B8040310B80C01
:100FBA007008860087010108F200740AE52FF235ED
:100FCA00890BE42F72088039F3007308B8042000F3
:100FDA00380808002D3084008130850020308600D2
:100FEA00003087001530813101218731FD01B801B8
:060FFA00B9012000582996
:020000040001F9
:04000E00E43FFF3E8E
:00000001FF
