:040000000128F12FB3
:1002920016302100970008009821572149210800B3
:1002A200FE0012001E00FE0B5229003448302100CD
:1002B20099009801220096010800F10006307102AF
:1002C20003186529710867297108FA3E2000B900F0
:1002D2000230F0007008B907390808004D210D30CE
:1002E200F9000930AE212000B70009305E2120005C
:1002F200B6002030F0003708F100360867222000EF
:10030200B50082291E34213404340C3414343F34B1
:10031200023420340E34013406340A3412342234C6
:100322003E342E3430340834103423341D34153026
:1003320022008C008D01E03021008C00FF308D0006
:10034200FE3023008D008C0124008D018C012100E0
:10035200951722009D019E010800FC0006307C02D8
:100362000318C1290A30F0000030F1007908FA00C0
:10037200FB017A08F2007B08F30016227008CE29EE
:100382000A30F0000030F1007908FA00FB017A0827
:10039200F2007B08F300D1217008FD007D080800FF
:1003A200F601F31FDB29F209F309F20A0319F30A32
:1003B200F601F60AF11FE229F009F109F00A031920
:1003C200F10A700871040319092AF501F50AF11BF3
:1003D200F4290130F035F10D890BEB290130F400DD
:1003E2007408F507E82971087302031DFA297008D9
:1003F2007202031C002A7008F2027108F33B0130FA
:10040200F136F00C890B012A0130F502031DF429A3
:1004120076080319112AF209F309F20A0319F30AF9
:100422007308F1007208F0000800F601F11F202A9B
:10043200F009F109F00A0319F10AF601F60AF31FAD
:100442002B2AF209F309F20A0319F30A0130F40024
:100452007408F606F701F8017008710403195A2AA4
:10046200F501F50AF11B3F2A0130F035F10D890B38
:10047200362A0130F4007408F507332A0130F735C3
:10048200F80D890B402A71087302031D4A2A70086D
:100492007202031C512A7008F2027108F33B7714AE
:1004A2000130F136F00C890B522A0130F502031D9E
:1004B2003F2A76080319622AF709F809F70A03198D
:1004C200F80A7808F1007708F0000800F4007108D3
:1004D200031DF02A7008860087010108F200740AE1
:1004E200732AF235890B722A720880392000B8000B
:1004F2000310B80C700A860087010108F200740A22
:10050200832AF235890B822A72088039F300730834
:10051200B8040310B80C700A860087010108F200C3
:10052200740A942AF235890B932A72088039F300EF
:100532007308B8040310B80C700A8600870101081A
:10054200F200740AA52AF235890BA42A72088039AE
:10055200F3007308B8040310B80C700A8600870110
:100562000108F200740AB62AF235890BB52A72081C
:100572008039F3007308B8040310B80C700A8600BF
:1005820087010108F200740AC72AF235890BC62ACC
:1005920072088039F3007308B8040310B80C700AAB
:1005A200860087010108F200740AD82AF235890B05
:1005B200D72A72088039F3007308B8040310B80C04
:1005C2007008860087010108F200740AE92AF235F0
:1005D200890BE82A72088039F3007308B8047103A2
:1005E200031D802B7008053E860087010108F2007A
:1005F200740AFC2AF235890BFB2A72088039200022
:10060200B8000310B80C7008023E8600870101088A
:10061200F200740A0D2BF235890B0C2B720880390B
:10062200F3007308B8040310B80C7008023E860089
:1006320087010108F200740A1F2BF235890B1E2B69
:1006420072088039F3007308B8040310B80C7008FC
:10065200023E860087010108F200740A312BF2354E
:10066200890B302B72088039F3007308B804031029
:10067200B80C7008023E860087010108F200740A75
:10068200432BF235890B422B72088039F300730831
:10069200B8040310B80C7008043E860087010108F4
:1006A200F200740A552BF235890B542B72088039EB
:1006B200F3007308B8040310B80C7008033E8600F8
:1006C20087010108F200740A672BF235890B662B49
:1006D20072088039F3007308B8040310B80C70086C
:1006E200023E860087010108F200740A792BF23576
:1006F200890B782B72088039F3007308B804023032
:100702007106031D0E2C7008053E86008701010844
:10071200F200740A8D2BF235890B8C2B720880390A
:100722002000B8000310B80C7008073E860087014D
:100732000108F200740A9E2BF235890B9D2B720878
:100742008039F3007308B8040310B80C7008123E25
:10075200860087010108F200740AB02BF235890B7A
:10076200AF2B72088039F3007308B8040310B80C79
:100772007008033E860087010108F200740AC22B4A
:10078200F235890BC12B72088039F3007308B80463
:100792000310B80C7008063E860087010108F200BB
:1007A200740AD42BF235890BD32B72088039F300EB
:1007B2007308B8040310B80C700A86008701010898
:1007C200F200740AE52BF235890BE42B72088039AA
:1007D200F3007308B8040310B80C700A860087018E
:1007E2000108F200740AF62BF235890BF52B720818
:1007F2008039F3007308B8040310B80C700886003F
:1008020087010108F200740A072CF235890B062CC5
:1008120072088039F3007308B80403307106031DAF
:100822009C2C7008860087010108F200740A1A2CB9
:10083200F235890B192C720880392000B800031098
:10084200B80C700A860087010108F200740A2A2C8B
:10085200F235890B292C72088039F3007308B80429
:100862000310B80C700A860087010108F200740AAE
:100872003B2CF235890B3A2C72088039F30073084D
:10088200B8040310B80C7008093E860087010108FD
:10089200F200740A4D2CF235890B4C2C7208803907
:1008A200F3007308B8040310B80C7008083E860001
:1008B20087010108F200740A5F2CF235890B5E2C65
:1008C20072088039F3007308B8040310B80C70087A
:1008D200043E860087010108F200740A712CF23589
:1008E200890B702C72088039F3007308B804031066
:1008F200B80C7008063E860087010108F200740AEF
:10090200832CF235890B822C72088039F30073082C
:10091200B8040310B80C7008053E86008701010870
:10092200F200740A952CF235890B942C72088039E6
:10093200F3007308B80404307106031D2D2D7008EE
:10094200063E860087010108F200740AA92CF235DE
:10095200890BA82C720880392000B8000310B80C4B
:100962007008063E860087010108F200740ABA2C5C
:10097200F235890BB92C72088039F3007308B80478
:100982000310B80C7008063E860087010108F200C9
:10099200740ACC2CF235890BCB2C72088039F30007
:1009A2007308B8040310B80C7008053E860087016E
:1009B2000108F200740ADE2CF235890BDD2C720874
:1009C2008039F3007308B8040310B80C70080D3EA8
:1009D200860087010108F200740AF02CF235890BB7
:1009E200EF2C72088039F3007308B8040310B80CB6
:1009F20070080C3E860087010108F200740A022D7D
:100A0200F235890B012D72088039F3007308B8049E
:100A12000310B80C70080B3E860087010108F20033
:100A2200740A142DF235890B132D72088039F300E4
:100A32007308B8040310B80C70080A3E86008701D8
:100A42000108F200740A262DF235890B252D720851
:100A52008039F3007308B80405307106031DBC2DFC
:100A62007008860087010108F200740A392DF235F8
:100A7200890B382D720880392000B8000310B80C99
:100A8200700A860087010108F200740A492DF235C6
:100A9200890B482D72088039F3007308B8040310DB
:100AA200B80C7008093E860087010108F200740A3A
:100AB2005B2DF235890B5A2D72088039F3007308C9
:100AC200B8040310B80C7008093E860087010108BB
:100AD200F200740A6D2DF235890B6C2D7208803983
:100AE200F3007308B8040310B80C70080E3E8600B9
:100AF20087010108F200740A7F2DF235890B7E2DE1
:100B020072088039F3007308B8040310B80C700837
:100B1200073E860087010108F200740A912DF23522
:100B2200890B902D72088039F3007308B804031002
:100B3200B80C7008073E860087010108F200740AAB
:100B4200A32DF235890BA22D72088039F3007308A8
:100B5200B8040310B80C7008053E8600870101082E
:100B6200F200740AB52DF235890BB42D7208803962
:100B7200F3007308B80406307106031D482E70088E
:100B8200860087010108F200740AC82DF235890B2C
:100B9200C72D720880392000B8000310B80C700A03
:100BA200860087010108F200740AD82DF235890BFC
:100BB200D72D72088039F3007308B8040310B80CFB
:100BC200700A860087010108F200740AE92DF235E5
:100BD200890BE82D72088039F3007308B8040310FA
:100BE200B80C7008103E860087010108F200740AF2
:100BF200FB2DF235890BFA2D72088039F300730848
:100C0200B8040310B80C70080F3E86008701010873
:100C1200F200740A0D2EF235890B0C2E72088039FF
:100C2200F3007308B8040310B80C7008073E86007E
:100C320087010108F200740A1F2EF235890B1E2E5D
:100C420072088039F3007308B8040310B80C700AF4
:100C5200860087010108F200740A302EF235890BF2
:100C62002F2E72088039F3007308B8040310B80CF1
:100C72007008860087010108F200740A412EF235DD
:100C8200890B402E72088039F3007308B8040730CC
:100C92007106031DD92E7008073E860087010108E0
:100CA200F200740A552EF235890B542E72088039DF
:100CB2002000B8000310B80C7008073E86008701B8
:100CC2000108F200740A662EF235890B652E72084D
:100CD2008039F3007308B8040310B80C7008123E90
:100CE200860087010108F200740A782EF235890B1A
:100CF200772E72088039F3007308B8040310B80C19
:100D02007008113E860087010108F200740A8A2EDB
:100D1200F235890B892E72088039F3007308B80402
:100D22000310B80C7008023E860087010108F20029
:100D3200740A9C2EF235890B9B2E72088039F300BF
:100D42007308B8040310B80C7008063E86008701C9
:100D52000108F200740AAE2EF235890BAD2E72082C
:100D62008039F3007308B8040310B80C7008093E08
:100D7200860087010108F200740AC02EF235890B41
:100D8200BF2E72088039F3007308B8040310B80C40
:100D92007008053E860087010108F200740AD22E0F
:100DA200F235890BD12E72088039F3007308B8042A
:100DB20008307106031D622F700886008701010842
:100DC200F200740AE52EF235890BE42E720880399E
:100DD2002000B8000310B80C700A860087010108D1
:100DE200F200740AF52EF235890BF42E720880395E
:100DF200F3007308B8040310B80C700A8600870168
:100E02000108F200740A062FF235890B052F7208C9
:100E12008039F3007308B8040310B80C700A860016
:100E220087010108F200740A172FF235890B162F79
:100E320072088039F3007308B8040310B80C700804
:100E4200860087010108F200740A282FF235890B07
:100E5200272F72088039F3007308B8040310B80C06
:100E6200700A860087010108F200740A392FF235F0
:100E7200890B382F72088039F3007308B804031005
:100E8200B80C700A860087010108F200740A4A2F22
:100E9200F235890B492F72088039F3007308B804C0
:100EA2000310B80C7008860087010108F200740A6A
:100EB2005B2FF235890B5A2F72088039F3007308C1
:100EC200B80409307106031DEE2F700886008701F1
:100ED2000108F200740A6E2FF235890B6D2F720829
:100EE20080392000B8000310B80C700A8600870110
:100EF2000108F200740A7E2FF235890B7D2F7208E9
:100F02008039F3007308B8040310B80C7008093E66
:100F1200860087010108F200740A902FF235890BCE
:100F22008F2F72088039F3007308B8040310B80CCD
:100F32007008143E860087010108F200740AA22F8D
:100F4200F235890BA12F72088039F3007308B804B7
:100F52000310B80C7008133E860087010108F200E6
:100F6200740AB42FF235890BB32F72088039F3005B
:100F72007308B8040310B80C700A860087010108D0
:100F8200F200740AC52FF235890BC42F720880391A
:100F9200F3007308B8040310B80C700A86008701C6
:100FA2000108F200740AD62FF235890BD52F720888
:100FB2008039F3007308B8040310B80C7008860077
:100FC20087010108F200740AE72FF235890BE62F38
:100FD20072088039F3007308B8042000380808004A
:100FE2008330840081308500203086000030870005
:0E0FF20015305121FD01B801B90120006F2911
:020000040001F9
:04000E00E43FFF3E8E
:00000001FF
