:040000000128F32FB1
:100482001630210097000800AF224F2241220800B7
:10049200FE0012001E00FE0B4A2A003448302100E2
:1004A20099009801220096010800F1007108860067
:1004B20087010108F0000130F035FF3E031D5D2A7F
:1004C2007035FC007C080800F20006307202031846
:1004D2006C2A72086E2A7208FA3EF1000230F000AD
:1004E2007008F10771080800F6000630760203185A
:1004F2007F2A0A30F0007508E022832A0A30F000D1
:100502007508C522F70077080800452220305622D8
:10051200F8000A30F50006307522FB00063065222D
:10052200FA002030F0007B08F1007A080123F9007C
:10053200992A1E34213404340C3414343F340234E6
:1005420020340E34013406340A34123422343E3458
:100552002E3430340834103423341D341530220044
:100562008C008D01E03021008C00FF308D00FE30C8
:1005720023008D008C0124008D018C012100951730
:1005820022009D019E010800F2000830F300F401F0
:100592007208F1000730F136890BCC2A74357104E8
:1005A200F4000310F20D70087402031CDA2A7008BA
:1005B200F4020130F302031DC92A74080800F20094
:1005C200F40170080319FF2AF301F30AF01BF02A61
:1005D2000310F00D0130F1007108F307E72A031050
:1005E200F40D70087202031CFA2A7008F2027414E5
:1005F2000310F00C0130F302031DF02A7408080006
:10060200F5007108031D7B2B700886008701010825
:10061200F200750A0D2BF235890B0C2B720880390A
:10062200F400700A860087010108F200750A1A2B8D
:10063200F235890B192B72084039F3007308F40460
:10064200700A860087010108F200750A292BF2352B
:10065200890B282B72082039F3007308F404700AFE
:10066200860087010108F200750A382BF235890BE2
:10067200372B72081039F3007308F404700A8600ED
:1006820087010108F200750A472BF235890B462BC8
:1006920072080839F3007308F404700A86008701AF
:1006A2000108F200750A562BF235890B552B720898
:1006B2000439F3007308F404700A86008701010804
:1006C200F200750A652BF235890B642B7208023928
:1006D200F3007308F4047008860087010108F20031
:1006E200750A742BF235890B732B72080139F300EA
:1006F2007308F4047103031DFC2B7008053E860089
:1007020087010108F200750A872BF235890B862BC7
:1007120072088039F4007008023E860087010108E1
:10072200F200750A952BF235890B942B7208403929
:10073200F3007308F4047008023E86008701010882
:10074200F200750AA52BF235890BA42B7208203909
:10075200F3007308F4047008023E86008701010862
:10076200F200750AB52BF235890BB42B72081039D9
:10077200F3007308F4047008023E86008701010842
:10078200F200750AC52BF235890BC42B72080839A1
:10079200F3007308F4047008043E86008701010820
:1007A200F200750AD52BF235890BD42B7208043965
:1007B200F3007308F4047008033E86008701010801
:1007C200F200750AE52BF235890BE42B7208023927
:1007D200F3007308F4047008023E860087010108E2
:1007E200F200750AF52BF235890BF42B72080139E8
:1007F200F3007308F40402307106031D7B2C7008A9
:10080200860087010108F200750A082CF235890B6F
:10081200072C72088039F400700A860087010108EB
:10082200F200750A152CF235890B142C7208403926
:10083200F3007308F4047008023E86008701010881
:10084200F200750A252CF235890B242C7208203906
:10085200F3007308F4047008033E86008701010860
:10086200F200750A352CF235890B342C72081039D6
:10087200F3007308F4047008063E8600870101083D
:10088200F200750A452CF235890B442C720808399E
:10089200F3007308F404700A860087010108F2006D
:1008A200750A542CF235890B532C72080439F30063
:1008B2007308F4047008073E860087010108F200FD
:1008C200750A642CF235890B632C72080239F30025
:1008D2007308F4047008053E860087010108F200DF
:1008E200750A742CF235890B732C72080139F300E6
:1008F2007308F40403307106031DFA2C7008053ED8
:10090200860087010108F200750A882CF235890BEE
:10091200872C72088039F4007008063E8600870131
:100922000108F200750A962CF235890B952C720893
:100932004039F3007308F4047008043E860087010E
:100942000108F200750AA62CF235890BA52C720853
:100952002039F3007308F4047008083E860087010A
:100962000108F200750AB62CF235890BB52C720813
:100972001039F3007308F4047008093E86008701F9
:100982000108F200750AC62CF235890BC52C7208D3
:100992000839F3007308F404700A8600870101081D
:1009A200F200750AD52CF235890BD42C7208043961
:1009B200F3007308F404700A860087010108F2004C
:1009C200750AE42CF235890BE32C72080239F30024
:1009D2007308F4047008860087010108F200750AA2
:1009E200F32CF235890BF22C72080139F3007308EB
:1009F200F40404307106031D7C2D70080A3E860043
:100A020087010108F200750A072DF235890B062DC0
:100A120072088039F40070080B3E860087010108D5
:100A2200F200750A152DF235890B142D7208403922
:100A3200F3007308F40470080C3E86008701010875
:100A4200F200750A252DF235890B242D7208203902
:100A5200F3007308F40470080D3E86008701010854
:100A6200F200750A352DF235890B342D72081039D2
:100A7200F3007308F4047008053E8600870101083C
:100A8200F200750A452DF235890B442D720808399A
:100A9200F3007308F4047008063E8600870101081B
:100AA200F200750A552DF235890B542D720804395E
:100AB200F3007308F4047008063E860087010108FB
:100AC200F200750A652DF235890B642D7208023920
:100AD200F3007308F4047008063E860087010108DB
:100AE200F200750A752DF235890B742D72080139E1
:100AF200F3007308F40405307106031DFC2D700821
:100B0200053E860087010108F200750A892DF2353B
:100B1200890B882D72088039F4007008073E860020
:100B220087010108F200750A972DF235890B962D7F
:100B320072084039F3007308F4047008073E860017
:100B420087010108F200750AA72DF235890BA62D3F
:100B520072082039F3007308F40470080E3E860010
:100B620087010108F200750AB72DF235890BB62DFF
:100B720072081039F3007308F4047008093E860005
:100B820087010108F200750AC72DF235890BC62DBF
:100B920072080839F3007308F4047008093E8600ED
:100BA20087010108F200750AD72DF235890BD62D7F
:100BB20072080439F3007308F404700A860087018E
:100BC2000108F200750AE62DF235890BE52D72084F
:100BD2000239F3007308F4047008860087010108E3
:100BE200F200750AF52DF235890BF42D72080139E0
:100BF200F3007308F40406307106031D792E7008A1
:100C0200860087010108F200750A082EF235890B69
:100C1200072E72088039F400700A860087010108E5
:100C2200F200750A152EF235890B142E720840391E
:100C3200F3007308F4047008073E86008701010878
:100C4200F200750A252EF235890B242E72082039FE
:100C5200F3007308F40470080F3E86008701010850
:100C6200F200750A352EF235890B342E72081039CE
:100C7200F3007308F4047008103E8600870101082F
:100C8200F200750A452EF235890B442E7208083996
:100C9200F3007308F404700A860087010108F20069
:100CA200750A542EF235890B532E72080439F3005B
:100CB2007308F404700A860087010108F200750ABD
:100CC200632EF235890B622E72080239F300730823
:100CD200F4047008860087010108F200750A722E7A
:100CE200F235890B712E72080139F3007308F4048E
:100CF20007307106031DFB2E7008053E8600870132
:100D02000108F200750A862EF235890B852E7208CB
:100D12008039F4007008093E860087010108F2005C
:100D2200750A942EF235890B932E72084039F3001E
:100D32007308F4047008063E860087010108F20079
:100D4200750AA42EF235890BA32E72082039F300FE
:100D52007308F4047008023E860087010108F2005D
:100D6200750AB42EF235890BB32E72081039F300CE
:100D72007308F4047008113E860087010108F2002E
:100D8200750AC42EF235890BC32E72080839F30096
:100D92007308F4047008123E860087010108F2000D
:100DA200750AD42EF235890BD32E72080439F3005A
:100DB2007308F4047008073E860087010108F200F8
:100DC200750AE42EF235890BE32E72080239F3001C
:100DD2007308F4047008073E860087010108F200D8
:100DE200750AF42EF235890BF32E72080139F300DD
:100DF2007308F40408307106031D752F700886000D
:100E020087010108F200750A072FF235890B062FB8
:100E120072088039F400700A860087010108F20026
:100E2200750A142FF235890B132F72084039F3001B
:100E32007308F404700A860087010108F200750A3B
:100E4200232FF235890B222F72082039F300730801
:100E5200F4047008860087010108F200750A322F37
:100E6200F235890B312F72081039F3007308F4043C
:100E7200700A860087010108F200750A412FF235D7
:100E8200890B402F72080839F3007308F404700AC2
:100E9200860087010108F200750A502FF235890B8E
:100EA2004F2F72080439F3007308F404700A8600A5
:100EB20087010108F200750A5F2FF235890B5E2F58
:100EC20072080239F3007308F4047008860087017F
:100ED2000108F200750A6E2FF235890B6D2F720828
:100EE2000139F3007308F40409307106031D080088
:100EF2007008860087010108F200750A812FF23519
:100F0200890B802F72088039F400700A86008701ED
:100F12000108F200750A8E2FF235890B8D2F7208A7
:100F22004039F3007308F404700A8600870101084F
:100F3200F200750A9D2FF235890B9C2F7208203919
:100F4200F3007308F4047008133E86008701010859
:100F5200F200750AAD2FF235890BAC2F72081039E9
:100F6200F3007308F4047008143E86008701010838
:100F7200F200750ABD2FF235890BBC2F72080839B1
:100F8200F3007308F4047008093E86008701010823
:100F9200F200750ACD2FF235890BCC2F7208043975
:100FA200F3007308F404700A860087010108F20056
:100FB200750ADC2FF235890BDB2F72080239F30038
:100FC2007308F4047008860087010108F200750AAC
:100FD200EB2FF235890BEA2F72080139F3007308FF
:100FE200F40408009A3084008230850020308600A4
:0E0FF2000030870015304922FC012000862ABD
:020000040001F9
:04000E00E43FFF3E8E
:00000001FF
