:040000000128EA2FBA
:100C160020001814080023001E0C013908001630A5
:100C260021009700080071082000E9007008E8001C
:100C3600080071082000ED007008EC00080071083B
:100C46002000EB007008EA00080071082100A100EE
:100C56007008A000080071082000EF007008EE0080
:100C66000800640080010131890B352E0034FE0036
:100C760012001E00FE0B3B2E003448302100990066
:100C86009801220096010800F00023009D121D1213
:100C96002000111E4F2E502E4B2E700823009A0056
:100CA600080086317926863186314026863186319E
:100CB6001226863186318F2686318631EE2686319A
:100CC6000800F300F201731C692E6A2E6E2E70085E
:100CD600F1007108F2070310F00D0310F30C73080E
:100CE600031D762E772E662E720808001D30220010
:100CF6008C008D01E03021008C00FF308D00F83033
:100D060023008D008C0124008D018C012100951794
:100D160022009D019E01080020009901FC309700E9
:100D26001830960011101708DF001608DE002100A3
:100D360011140030F0000030F10086312E26863185
:100D46000130200098000800F8017408FF3EFB00FF
:100D56000330F0007B088631642686317707F90078
:100D660076087907FA007A08860087017835010740
:100D7600F8000130FB02AB2E0800013400340134C8
:100D860001340134013401340034013401340034B7
:100D960000340134003400340134013401340134A8
:100DA6000134013400340134003401340134013497
:100DB6000134013401340134003400340134013487
:100DC6000134033401340134013400340134003475
:100DD600003401340034210091120030F00000305C
:100DE600F100863128268631083023009F008030A6
:100DF6009D00B4309E0006309B009C010030F00040
:100E06000030F10086311C2686310030F0000030BB
:100E1600F1008631222686310030F0000030F100E4
:100E26008631162686312000E401E701E601E50158
:100E36002100911608008631542687318631EE2628
:100E4600873186318F2687318B170B1786310B2614
:100E5600873120006303031D312F322F2C2FD32F10
:100E660022000C160C1580302000E2000330F4003E
:100E76000030F5006008F6004530F700F8018631CD
:100E8600A7268731803086314726873186310E2660
:100E96008731003A0319502F512F492F00308631E0
:100EA6004726873186310E268731003A03195C2F93
:100EB6005D2F552F22008C148C1100320032003227
:100EC60022008C108C150C120C1122000C160C151D
:100ED60040302000E2000330F4000030F5006008E6
:100EE600F6004530F700F8018631A72687314030F5
:100EF60086314726873186310E268731003A031917
:100F0600852F862F7E2F0030863147268731863102
:100F16000E268731003A0319912F922F8A2F22002D
:100F26008C148C1100320032003222008C108C1589
:100F36000C120C1122000C160C1520302000E200B9
:100F46000330F4000030F5006008F6004530F70085
:100F5600F8018631A726873120308631472687312A
:100F660086310E268731003A0319BA2FBB2FB32FCD
:100F7600003086314726873186310E268731003A82
:100F86000319C62FC72FBF2F22008C148C110032D5
:100F96000032003222008C108C150C120C11E62F38
:100FA6006008FC00FD017D08003A0319DB2FE62FDF
:100FB6007C08003A0319332F013A0319682F033AC4
:100FC60003199D2FE62F2000E3012C2F0128C030A6
:100FD60084008630850020308600003087002E3061
:100FE60086313A2687314E308400003085001A302B
:0A0FF60086313426873120001E2FBB
:020000040001F9
:04000E00E43FFF3E8E
:00000001FF
