:040000000128EE2FB6
:100CC20020001814080023001E0C013908001630F9
:100CD20021009700080071082000E9007008E80070
:100CE200080071082000ED007008EC00080071088F
:100CF2002000EB007008EA00080071082100A10042
:100D02007008A000080071082000EF007008EE00D3
:100D12000800D5269C266826EB26012708006400D9
:100D220080010131890B912E0034FE0012001E0059
:100D3200FE0B972E003448302100990098012200C2
:100D420096010800F00023009D121D122000111EC2
:100D5200A72E700823009A000800F300F201731C0A
:100D6200B62E7008F1007108F2070310F00D03109F
:100D7200F30C7308031DB02E72080800F801740802
:100D8200FF3EFB000330F0007B08AE267707F90038
:100D920076087907FA007A08860087017835010714
:100DA200F8000130FB02C32E1D3022008C008D01A1
:100DB200E03021008C00FF308D00F83023008D00E0
:100DC2008C0124008D018C012100951722009D01C8
:100DD2009E01080020009901FC309700183096000F
:100DE20011101708DF001608DE0021001114003070
:100DF200F0000030F1008426013020009800080045
:100E0200210091120030F0000030F1007E260830FF
:100E120023009F0080309D00B4309E0006309B006E
:100E22009C010030F0000030F10072260030F0002A
:100E32000030F10078260030F0000030F1006C261E
:100E42002000E401E701E601E50121009116080016
:100E520001340034013401340134013401340034EA
:100E620001340134003400340134003400340134DC
:100E720001340134013401340134003401340034CA
:100E820001340134013401340134013401340034B9
:100E920000340134013401340334013401340134A7
:100EA2000034013400340034013400348A2601272E
:100EB200EB268B170B176126200063030319D82F2B
:100EC2005D2F22000C160C1580302000E20003304A
:100ED200F4000030F5006008F6004530F700F80134
:100EE200BF268030A3266426003A0319742F0030EF
:100EF200A3266426003A03197A2F22008C148C113F
:100F020000320032003222008C108C150C120C11AF
:100F120022000C160C1540302000E2000330F400D1
:100F22000030F5006008F6004530F700F801BF26F2
:100F32004030A3266426003A03199B2F0030A326D3
:100F42006426003A0319A12F22008C148C1100325E
:100F52000032003222008C108C150C120C1122006F
:100F62000C160C1520302000E2000330F400003093
:100F7200F5006008F6004530F700F801BF26203082
:100F8200A3266426003A0319C22F0030A326642642
:100F9200003A0319C82F22008C148C11003200323F
:100FA200003222008C108C150C120C11EB2F6008F1
:100FB200FC00FD017D08003A0319E02FEB2F7C08AD
:100FC200003A0319622F013A0319892F033A0319D0
:100FD200B02FEB2F2000E3015D2F293084008730F2
:100FE200850020308600003087002E3096264E3055
:0E0FF2008400003085001A3090262000572F12
:020000040001F9
:04000E00E43FFF3E8E
:00000001FF
