:040000000128EC2FB8
:100CDE001814080023001E0C0139080016302100DC
:100CEE00970008007108E7007008E6000800710818
:100CFE00E9007008E800080071082000EB00700899
:100D0E00EA00080071082000EF007008EE000800ED
:100D1E0071082000ED007008EC000800F526A726EB
:100D2E007526CA260B270800640080010131890B45
:100D3E009C2E0034FE0012001E00FE0BA22E00346C
:100D4E004830210099009801220096010800F00019
:100D5E0023009D121D122000111EB22E70082300BA
:100D6E009A000800F300F201731CC12E7008F10006
:100D7E007108F2070310F00D0310F30C7308031D36
:100D8E00BB2E7208080020009901FC309700183025
:100D9E00960011101708DF001608DE00210011144E
:100DAE000030F0000030F1008F260130980008006E
:100DBE00F8017408FF3EFB000330F0007B08B926F3
:100DCE007707F90076087907FA007A088600870116
:100DDE0078350107F8000130FB02E32E1D302200AA
:100DEE008C008D01E03021008C00FF308D00F8303A
:100DFE0023008D008C0124008D018C01210095179C
:100E0E0022009D019E010800210091120030F00089
:100E1E000030F1008926083023009F0080309D00AD
:100E2E00B4309E0006309B009C010030F000003074
:100E3E00F10083260030F0000030F1007E260030F5
:100E4E00F0000030F1007926E201E501E401E30152
:100E5E0021009116080001340034013401340134AC
:100E6E0001340134003401340134003400340134CF
:100E7E0000340034013401340134013401340134BE
:100E8E0000340134003401340134013401340134AE
:100E9E00013401340034003401340134013403349C
:100EAE00013401340134003401340034003401348F
:100EBE00003495260B27CA268B170B176F267D033A
:100ECE000319DA2F662F22000C160C158030FC0049
:100EDE000330F4000030F500F6014530F700F8015C
:100EEE00DF268030AE267126003A03197A2F0030A5
:100EFE00AE267126003A0319802F22008C148C1115
:100F0E0000320032003222008C108C150C120C11A3
:100F1E0022000C160C154030FC000330F40000309B
:100F2E00F500F6014530F700F801DF264030AE2619
:100F3E007126003A03199F2F0030AE267126003A13
:100F4E000319A52F22008C148C11003200320032AE
:100F5E0022008C108C150C120C1122000C160C1584
:100F6E002030FC000330F4000030F500F60145306F
:100F7E00F700F801DF262030AE267126003A03195D
:100F8E00C42F0030AE267126003A0319CA2F220054
:100F9E008C148C1100320032003222008C108C1511
:100FAE000C120C11EA2F0030003A0319DF2FEA2F32
:100FBE000030003A03196A2F013A03198F2F033AB2
:100FCE000319B42FEA2FFD01662F323084008730CB
:100FDE00850020308600003087002E30A126FC01CF
:100FEE00FD014E3084000030850018309B26200015
:020FFE00602F62
:020000040001F9
:04000E00E43FFF3E8E
:00000001FF
