:040000000128F12FB3
:1003880016302100970008002022D221C42108003D
:10039800FE0012001E00FE0BCD290034483021005B
:1003A80099009801220096010800F10006307102B8
:1003B8000318E0297108E2297108FA3EFB000230AF
:1003C800F0007008FB077B080800F600063076028C
:1003D8000318F3290A30F00075085122F7290A306A
:1003E800F00075083622FC007C080800C8210D3092
:1003F800F5000930E921F9000930D921F800203049
:10040800F0007908F10078087222F7000A2A1E34F1
:10041800213404340C3414343F34023420340E3480
:10042800013406340A34123422343E342E34303443
:100438000834103423341D34153022008C008D010B
:10044800E03021008C00FF308D00FE3023008D004D
:100458008C0124008D018C012100951722009D013B
:100468009E010800F2000830F300F4017208F10060
:100478000730F136890B3D2A74357104F4000310F6
:10048800F20D70087402031C4B2A7008F402013044
:10049800F302031D3A2A74080800F200F4017008F8
:1004A8000319702AF301F30AF01B612A0310F00DF7
:1004B8000130F1007108F307582A0310F40D700891
:1004C8007202031C6B2A7008F20274140310F00CF9
:1004D8000130F302031D612A74080800F400710852
:1004E800031DFA2A7008860087010108F200740AC1
:1004F8007E2AF235890B7D2A72088039FA000310AA
:10050800FA0C700A860087010108F200740A8D2A25
:10051800F235890B8C2A72088039F3007308FA04C3
:100528000310FA0C700A860087010108F200740AA9
:100538009E2AF235890B9D2A72088039F3007308C8
:10054800FA040310FA0C700A860087010108F20009
:10055800740AAF2AF235890BAE2A72088039F30083
:100568007308FA040310FA0C700A86008701010860
:10057800F200740AC02AF235890BBF2A7208803942
:10058800F3007308FA040310FA0C700A8600870156
:100598000108F200740AD12AF235890BD02A7208B0
:1005A8008039F3007308FA040310FA0C700A860005
:1005B80087010108F200740AE22AF235890BE12A60
:1005C80072088039F3007308FA040310FA0C7008F3
:1005D800860087010108F200740AF32AF235890BB4
:1005E800F22A72088039F3007308FA047103031DB4
:1005F800892B7008053E860087010108F200740AFD
:10060800062BF235890B052B72088039FA00031086
:10061800FA0C7008023E860087010108F200740A8D
:10062800162BF235890B152B72088039F3007308E5
:10063800FA040310FA0C7008023E860087010108CC
:10064800F200740A282BF235890B272B720880399F
:10065800F3007308FA040310FA0C7008023E8600CF
:1006680087010108F200740A3A2BF235890B392BFD
:1006780072088039F3007308FA040310FA0C700842
:10068800023E860087010108F200740A4C2BF235FD
:10069800890B4B2B72088039F3007308FA04031096
:1006A800FA0C7008043E860087010108F200740AFB
:1006B8005E2BF235890B5D2B72088039F3007308C5
:1006C800FA040310FA0C7008033E8600870101083B
:1006D800F200740A702BF235890B6F2B720880397F
:1006E800F3007308FA040310FA0C7008023E86003F
:1006F80087010108F200740A822BF235890B812BDD
:1007080072088039F3007308FA0402307106031D79
:10071800162C7008053E860087010108F200740A4D
:10072800962BF235890B952B72088039FA00031045
:10073800FA0C7008073E860087010108F200740A67
:10074800A62BF235890BA52B72088039F3007308A4
:10075800FA040310FA0C7008123E8600870101089B
:10076800F200740AB82BF235890BB72B720880395E
:10077800F3007308FA040310FA0C7008033E8600AD
:1007880087010108F200740ACA2BF235890BC92BBC
:1007980072088039F3007308FA040310FA0C700821
:1007A800063E860087010108F200740ADC2BF23548
:1007B800890BDB2B72088039F3007308FA040310E5
:1007C800FA0C700A860087010108F200740AED2B02
:1007D800F235890BEC2B72088039F3007308FA04A0
:1007E8000310FA0C700A860087010108F200740AE7
:1007F800FE2BF235890BFD2B72088039F300730844
:10080800FA040310FA0C7008860087010108F20048
:10081800740A0F2CF235890B0E2C72088039F300FC
:100828007308FA0403307106031DA32C70088600B0
:1008380087010108F200740A222CF235890B212C59
:1008480072088039FA000310FA0C700A86008701D2
:100858000108F200740A312CF235890B302C720829
:100868008039F3007308FA040310FA0C700A860042
:1008780087010108F200740A422CF235890B412CD9
:1008880072088039F3007308FA040310FA0C700830
:10089800093E860087010108F200740A542CF235DB
:1008A800890B532C72088039F3007308FA0403107B
:1008B800FA0C7008083E860087010108F200740AE5
:1008C800662CF235890B652C72088039F3007308A1
:1008D800FA040310FA0C7008043E86008701010828
:1008E800F200740A782CF235890B772C720880395B
:1008F800F3007308FA040310FA0C7008063E860029
:1009080087010108F200740A8A2CF235890B892CB8
:1009180072088039F3007308FA040310FA0C70089F
:10092800053E860087010108F200740A9C2CF23506
:10093800890B9B2C72088039F3007308FA04043081
:100948007106031D332D7008063E860087010108D5
:10095800F200740AB02CF235890BAF2C720880397A
:10096800FA000310FA0C7008063E86008701010899
:10097800F200740AC02CF235890BBF2C720880393A
:10098800F3007308FA040310FA0C7008063E860098
:1009980087010108F200740AD22CF235890BD12C98
:1009A80072088039F3007308FA040310FA0C70080F
:1009B800053E860087010108F200740AE42CF2352E
:1009C800890BE32C72088039F3007308FA040310CA
:1009D800FA0C70080D3E860087010108F200740ABF
:1009E800F62CF235890BF52C72088039F300730860
:1009F800FA040310FA0C70080C3E860087010108FF
:100A0800F200740A082DF235890B072D7208803917
:100A1800F3007308FA040310FA0C70080B3E860002
:100A280087010108F200740A1A2DF235890B192D75
:100A380072088039F3007308FA040310FA0C70087E
:100A48000A3E860087010108F200740A2C2DF2354F
:100A5800890B2B2D72088039F3007308FA040530CE
:100A68007106031DC12D7008860087010108F20078
:100A7800740A3F2DF235890B3E2D72088039FA0031
:100A88000310FA0C700A860087010108F200740A44
:100A98004E2DF235890B4D2D72088039F3007308FD
:100AA800FA040310FA0C7008093E86008701010851
:100AB800F200740A602DF235890B5F2D72088039B7
:100AC800F3007308FA040310FA0C7008093E860054
:100AD80087010108F200740A722DF235890B712D15
:100AE80072088039F3007308FA040310FA0C7008CE
:100AF8000E3E860087010108F200740A842DF23543
:100B0800890B832D72088039F3007308FA040310E7
:100B1800FA0C7008073E860087010108F200740A83
:100B2800962DF235890B952D72088039F3007308DC
:100B3800FA040310FA0C7008073E860087010108C2
:100B4800F200740AA82DF235890BA72D7208803996
:100B5800F3007308FA040310FA0C7008053E8600C7
:100B680087010108F200740ABA2DF235890BB92DF4
:100B780072088039F3007308FA0406307106031D01
:100B88004C2E7008860087010108F200740ACD2DEA
:100B9800F235890BCC2D72088039FA000310FA0C53
:100BA800700A860087010108F200740ADC2DF2350C
:100BB800890BDB2D72088039F3007308FA040310DF
:100BC800FA0C700A860087010108F200740AED2DFC
:100BD800F235890BEC2D72088039F3007308FA049A
:100BE8000310FA0C7008103E860087010108F20015
:100BF800740AFF2DF235890BFE2D72088039F30037
:100C08007308FA040310FA0C70080F3E8600870177
:100C18000108F200740A112EF235890B102E7208A1
:100C28008039F3007308FA040310FA0C7008073EC1
:100C3800860087010108F200740A232EF235890B19
:100C4800222E72088039F3007308FA040310FA0C94
:100C5800700A860087010108F200740A342EF23502
:100C6800890B332E72088039F3007308FA040310D5
:100C7800FA0C7008860087010108F200740A452EF4
:100C8800F235890B442E72088039F3007308FA0490
:100C980007307106031DDC2E7008073E86008701A9
:100CA8000108F200740A592EF235890B582E720881
:100CB8008039FA000310FA0C7008073E8600870195
:100CC8000108F200740A692EF235890B682E720841
:100CD8008039F3007308FA040310FA0C7008123E06
:100CE800860087010108F200740A7B2EF235890B11
:100CF8007A2E72088039F3007308FA040310FA0C8C
:100D08007008113E860087010108F200740A8D2ED2
:100D1800F235890B8C2E72088039F3007308FA04B7
:100D28000310FA0C7008023E860087010108F200E1
:100D3800740A9F2EF235890B9E2E72088039F300B3
:100D48007308FA040310FA0C7008063E860087013F
:100D58000108F200740AB12EF235890BB02E720820
:100D68008039F3007308FA040310FA0C7008093E7E
:100D7800860087010108F200740AC32EF235890B38
:100D8800C22E72088039F3007308FA040310FA0CB3
:100D98007008053E860087010108F200740AD52E06
:100DA800F235890BD42E72088039F3007308FA04DF
:100DB80008307106031D642F70088600870101083A
:100DC800F200740AE82EF235890BE72E7208803992
:100DD800FA000310FA0C700A860087010108F20075
:100DE800740AF72EF235890BF62E72088039F30053
:100DF8007308FA040310FA0C700A860087010108C8
:100E0800F200740A082FF235890B072F720880390F
:100E1800F3007308FA040310FA0C700A86008701BD
:100E28000108F200740A192FF235890B182F72087D
:100E38008039F3007308FA040310FA0C700886006E
:100E480087010108F200740A2A2FF235890B292F2D
:100E580072088039F3007308FA040310FA0C700A58
:100E6800860087010108F200740A3B2FF235890BCE
:100E78003A2F72088039F3007308FA040310FA0C49
:100E8800700A860087010108F200740A4C2FF235B7
:100E9800890B4B2F72088039F3007308FA0403108A
:100EA800FA0C7008860087010108F200740A5D2FA9
:100EB800F235890B5C2F72088039F3007308FA0445
:100EC80009307106031DEF2F70088600870101089D
:100ED800F200740A702FF235890B6F2F720880396F
:100EE800FA000310FA0C700A860087010108F20064
:100EF800740A7F2FF235890B7E2F72088039F30030
:100F08007308FA040310FA0C7008093E860087017A
:100F18000108F200740A912FF235890B902F72089C
:100F28008039F3007308FA040310FA0C7008143EB1
:100F3800860087010108F200740AA32FF235890B95
:100F4800A22F72088039F3007308FA040310FA0C10
:100F58007008133E860087010108F200740AB52F55
:100F6800F235890BB42F72088039F3007308FA043C
:100F78000310FA0C700A860087010108F200740A4F
:100F8800C62FF235890BC52F72088039F300730814
:100F9800FA040310FA0C700A860087010108F200AF
:100FA800740AD72FF235890BD62F72088039F300CF
:100FB8007308FA040310FA0C700886008701010808
:100FC800F200740AE82FF235890BE72F720880398E
:100FD800F3007308FA047A0808000B3084008230A2
:100FE800850020308600003087001530CC21FA01BA
:080FF800FB01FC012000FA29B5
:020000040001F9
:04000E00E43FFF3E8E
:00000001FF
